:020000040800F2
:1000000000080020CD0C0008CD020008CF02000837
:10001000D3020008D7020008DB020008000000003D
:10002000000000000000000000000000DF020008E7
:10003000E102000800000000E3020008E5020008F9
:10004000E70C0008E70C0008E70C0008E70C0008C4
:10005000E70C0008E70C0008E70C0008E70C0008B4
:10006000E70C0008E70C0008E70C0008E70C0008A4
:10007000E70C0008E70C0008E70C0008E70C000894
:1000800073030008ED030008E70C0008E70C000804
:10009000E7020008E70C0008E70C0008E70C00087E
:1000A000E70C0008E70C0008E70C0008E70C000864
:1000B0003103000859030008E70C0008E70C0008AA
:1000C000E70C0008E70C0008E70C0008E70C000844
:1000D000E70C000803040008E70C000831060008DC
:1000E000E70C0008E70C0008E70C0008E70C000824
:1000F000E70C0008E70C0008E70C0008E70C000814
:10010000E70C0008E70C0008E70C0008E70C000803
:10011000A1080008E70C0008E70C0008E70C00083D
:10012000E70C0008E70C0008E70C0008E70C0008E3
:1001300000F002F800F090F80AA090E8000C824469
:100140008344AAF10107DA4501D100F085F8AFF246
:10015000090EBAE80F0013F0010F18BFFB1A43F0A5
:1001600001031847A08F0000C08F0000103A24BF81
:1001700078C878C1FAD8520724BF30C830C144BF0C
:1001800004680C607047000000230024002500264E
:10019000103A28BF78C1FBD8520728BF30C148BFEA
:1001A0000B6070476E2905F09584702905F0D7859E
:1001B000662908F0EE85652908F0EB85672908F0C7
:1001C000E885612908F0E78503681B0A28BF41F02C
:1001D0008001692905F04284642905F03F8475296E
:1001E00005F03C846F2905F06585782905F0A38525
:1001F000E92905F0FF84E42905F0FC84F52905F0E0
:10020000F984EF2905F06285F82905F0A2850368D5
:10021000DB0928BF41F08001632906F0A78273291A
:1002200006F0AC82E32906F0B782F32906F0BC821F
:10023000002070471FB506F00DFB040000200021D0
:1002400007F04CFD401C60600020002107F030FDED
:10025000E0601FBD10B510BD06F0CEFA1146FFF7E5
:10026000E9FF00F009F806F0A7FB03B4FFF7F2FF7F
:1002700003BC06F0E7FB000003F09BFD04F0CBFAA3
:100280001EE010480078012802D104F0E1FA17E0DE
:100290000D48C07C012808D10B48407A80B10A493A
:1002A000C868804705F026FA0AE00748C07C38B9DC
:1002B0000548407C20B104494868804705F014FA9D
:1002C000DFE700005300002060000020704700BFFF
:1002D000FEE700BFFEE700BFFEE700BFFEE7704796
:1002E00070477047704700B585B00221FE4801F0A5
:1002F00085F9D8B1002004F0B7FD0221FA4801F0D9
:1003000018FA009809280BD19DF80A00022807D195
:100310006A460021F44800F0EEFF684605F02FFA27
:10032000F248007840F0F000F049087005B000BDD8
:1003300010B50121880703F066FA60B1EC48006847
:10034000401CEB4908600846006806F03DFF0121AB
:10035000880703F069FA10BD10B50121E54803F0E4
:1003600052FA28B104F0A5FD0121E24803F05CFA3D
:1003700010BD10B54FF4001001F035FBA8B34FF4D9
:10038000801001F044FB4FF4001001F040FB00210D
:10039000D94801F0EEFAD9490A780121914301EBDD
:1003A0004101D74A02EBC100D649B1F9001004F06F
:1003B00010F90121D04801F0DCFAD049097801EBAD
:1003C0004101CF4A02EBC10005F0E2F9CB480178C8
:1003D00001208843C9490870012004F045FDC34845
:1003E000007840F00F00C149087010BD10B54FF003
:1003F000007001F0F8FA18B14FF0007001F007FB3F
:1004000010BD70B50024002500260821BE4803F069
:10041000B9FB48B10821BC4803F0C1FBBA4803F05E
:1004200047FB0020B949088040F22551B64803F047
:10043000BFFB002848D0B44803F03AFBC4B2B3482D
:10044000008800F4004000283ED1B148007800F058
:100450000F0000283DD1AD480088C0F30B00AD4926
:100460000C54AA480088401CA8490880A948007874
:10047000802801D000200880A6484078062808D0AF
:10048000A2480088C0F30B00012802DD00209F492C
:100490000880A0488078852808D09C480088C0F350
:1004A0000B00022802DD0020984908809748008848
:1004B000C0F30B00032807DD9648C078012804D15B
:1004C0009249088092490870B1E000208F49088065
:1004D000ADE08F48007800F00F0001283FD18B4835
:1004E0000088C0F30B008B490C5488480088401CDE
:1004F0008649088087480078FA2801D000200880C3
:1005000084484078042808D080480088C0F30B0055
:10051000012802DD00207D4908807E4880788928F6
:1005200008D07A480088C0F30B00022802DD0020C2
:100530007649088075480088C0F30B00032876DDF3
:100540007448C078792806D10120704908800220BB
:100550006F4908706BE000206C49088067E06C48C8
:10056000007800F00F00022861D168480088C0F3CD
:100570000B0068490C5465480088401C634908809A
:1005800064480078802801D00020088061484078C5
:10059000062808D05D480088C0F30B00012802DD62
:1005A00000205A4908805B488078822808D0574844
:1005B0000088C0F30B00022802DD002053490880A8
:1005C00052480088C0F30B0008280EDD5148C0785F
:1005D00045280AD14F480079522806D14D48407924
:1005E000522802D100204949088048480088C0F3B9
:1005F0000B000B281BDB002605E04648805D2844E5
:1006000085B2701CC6B20A2EF7DBE843401C85B2E7
:10061000E8B24049897A884206D13C48008840F4D3
:1006200000403A49088002E000203849088070BD47
:1006300070B50024002500260821374803F0A2FAEF
:1006400048B10821344803F0AAFA334803F030FADD
:1006500000203249088040F225512F4803F0A8FAC3
:10066000002869D02C4803F023FAC4B22B48008834
:1006700000F4004000285FD12948007800F00F0006
:1006800000285ED125480088C0F30B0025490C5492
:1006900022480088401C2149088022480078802890
:1006A00001D0002008801F484078062808D01B4849
:1006B0000088C0F30B00012802DD002017490880E4
:1006C00018488078852808D014480088C0F30B00AB
:1006D000022802DD00201149088010480088C0F37C
:1006E0000B00032828DD1FE0006400402C000020E0
:1006F00000000020000400406C0002407400002054
:100700005C01002076000020003801403C00002001
:100710004200002014010020004800403E0000205C
:100720004300002028010020E948C078012804D1B6
:10073000E8490880E8490870B1E00020E5490880F0
:10074000ADE0E548007800F00F0001283FD1E14816
:100750000088C0F30B00DE490C54DE480088401CC2
:10076000DC490880DA480078FA2801D000200880A7
:10077000D7484078042808D0D6480088C0F30B003A
:10078000012802DD0020D3490880D14880788928DB
:1007900008D0D0480088C0F30B00022802DD0020FA
:1007A000CC490880CB480088C0F30B00032876DDD5
:1007B000C748C078792806D10120C64908800220A0
:1007C000C54908706BE00020C249088067E0C24854
:1007D000007800F00F00022861D1BE480088C0F305
:1007E0000B00BB490C54BB480088401CB949088029
:1007F000B7480078802801D000200880B4484078AD
:10080000062808D0B3480088C0F30B00012802DD99
:100810000020B0490880AE488078822808D0AD48D2
:100820000088C0F30B00022802DD0020A9490880DF
:10083000A8480088C0F30B0008280EDDA448C07843
:1008400045280AD1A2480079522806D1A04840790B
:10085000522802D100209F4908809E480088C0F39A
:100860000B000B281BDB002605E09948805D28441F
:1008700085B2701CC6B20A2EF7DBE843401C85B275
:10088000E8B29349897A884206D19248008840F4B8
:1008900000409049088002E000208E49088070BD29
:1008A00070B500240025002608218C4803F06AF961
:1008B00048B10821894803F072F9884803F0F8F834
:1008C00000208749088040F22551844803F070F9E0
:1008D000002848D0814803F0EBF8C4B28048008873
:1008E00000F4004000283ED17E48007800F00F0060
:1008F00000283DD17A480088C0F30B007A490C5497
:1009000077480088401C764908807748007880281E
:1009100001D00020088074484078062808D070482C
:100920000088C0F30B00012802DD00206C4908801C
:100930006D488078852808D069480088C0F30B008E
:10094000022802DD00206649088065480088C0F35F
:100950000B00032807DD6448C078012804D16049F2
:10096000088060490870B1E000205D490880ADE072
:100970005C48007800F00F0001283FD158480088FB
:10098000C0F30B0058490C5455480088401C54498A
:10099000088055480078FA2801D000200880524885
:1009A0004078042808D04E480088C0F30B00012886
:1009B00002DD00204A4908804B488078892808D009
:1009C00047480088C0F30B00022802DD002044499C
:1009D000088043480088C0F30B00032876DD4248B6
:1009E000C078792806D101203D49088002203D4980
:1009F00008706BE000203A49088067E039480078C9
:100A000000F00F00022861D135480088C0F30B00C8
:100A100035490C5432480088401C3149088032481E
:100A20000078802801D0002008802F4840780628D0
:100A300008D02B480088C0F30B00012802DD0020FD
:100A40002749088028488078822808D024480088D0
:100A5000C0F30B00022802DD002021490880204855
:100A60000088C0F30B0008280EDD1F48C078452819
:100A70000AD11D480079522806D11B4840795228D6
:100A800002D100201649088015480088C0F30B00E9
:100A90000B281BDB002605E01348805D284485B247
:100AA000701CC6B20A2EF7DBE843401C85B2E8B2E0
:100AB0000D49897A884206D10948008840F40040EF
:100AC0000749088002E000200549088070BD000049
:100AD000280100203E00002043000020004C004080
:100AE00040000020440000203C0100200CB5002004
:100AF000019000906C48006840F480306A490860BA
:100B000000BF6948006800F4003000900198401C64
:100B10000190009818B90198B0F5A06FF1D1624822
:100B2000006800F4003010B10120009001E00020C6
:100B300000900098012843D15C48006840F0100004
:100B40005A4908600846006820F00300086008461B
:100B5000006840F00200086053484068524948600D
:100B60000846406848600846406840F48060486035
:100B70000846406820F47C1048600846406840F40D
:100B8000E81048600846006840F08070086000BFC8
:100B90004548006800F000700028F9D042484068DD
:100BA00020F00300404948600846406840F00200D9
:100BB000486000BF3C48406800F00C000828F9D1AC
:100BC0000CBD10B5FFF792FF10BD10B53648006898
:100BD00040F0010034490860084640683449084044
:100BE0003149486008460068324908402E4908608B
:100BF0000846006820F4802008600846406820F419
:100C0000FE0048604FF41F008860FFF7DAFF4FF0E6
:100C100000602949086010BD10B5002100200022A5
:100C2000214B5B6803F00C0121B1042906D008298F
:100C300028D107E0214B224C236027E01F4B204C9A
:100C4000236023E0184B5B6803F47010164B5B685D
:100C500003F48032022303EB904022B9194B434343
:100C6000174C23600DE0104B5B6803F4003323B195
:100C7000144B4343124C236003E0104B4343104C8E
:100C8000236003E00D4B0E4C236000BF00BF064BFA
:100C90005B68C3F303130C4CE15C094B1B68CB404E
:100CA000074C236010BD00000010024000200240ED
:100CB0000000FFF8FFFFF6FE08ED00E000127A00EA
:100CC0000400002000093D0008000020094880477A
:100CD00009480047FEE7FEE7FEE7FEE7FEE7FEE71E
:100CE000FEE7FEE7FEE7FEE704480549054A064B36
:100CF00070470000CB0B0008310100080002002003
:100D000000080020000400200004002031490143B5
:100D1000314A1160704770B5002100230F22C4785A
:100D200004B32D4C246804F4E064C4F5E064210AA3
:100D3000C1F10403CA40447804FA03F184781440F2
:100D400021430901254C0678A155047804F01F05BC
:100D50000124AC4005786D11AD0005F1E025C5F822
:100D6000004109E0047804F01F050124AC401C4D4B
:100D70000678761145F8264070BD1A4A0A400243AB
:100D8000154B1B1F1A60704739B1134A121D1268A8
:100D90000243114B1B1D1A6006E00F4A121D126818
:100DA00082430D4B1B1D1A607047042808D14FF079
:100DB000E021096941F004014FF0E022116107E0F0
:100DC0004FF0E021096921F004014FF0E0221161A8
:100DD000704700000000FA050CED00E000E400E0C0
:100DE00080E100E080FFFF1F10B50446FE4884420A
:100DF00009D10121480601F0D0FD00214FF000701B
:100E000001F0CBFD08E00121880601F0C6FD0021BC
:100E10004FF0806001F0C1FD10BD30B502460020EA
:100E20000023146824F002041460146844F00104E0
:100E3000146000E05B1C546804F001041CB94FF618
:100E4000FF74A342F6D1546804F001040CB90020E9
:100E50006CE08C79012C04D1146844F08004146097
:100E600003E0146824F080041460CC79012C04D1D0
:100E7000146844F04004146003E0146824F0400453
:100E800014600C7A012C04D1146844F0200414601E
:100E900003E0146824F0200414604C7A012C04D17F
:100EA000146844F01004146003E0146824F0100483
:100EB00014608C7A012C04D1146844F00804146086
:100EC00003E0146824F008041460CC7A012C04D1E7
:100ED000146844F00404146003E0146824F004046B
:100EE00014608C78A407CD7844EA05640D7944EA4F
:100EF00005444D7944EA05540D886D1E2C43D46198
:100F0000146824F001041460002300E05B1C5468A2
:100F100004F001041CB14FF6FF74A342F6D15468EB
:100F200004F001040CB1002000E0012030BD10B538
:100F30000021837A012202FA03F1AC4A126842F0DE
:100F40000102AA4B1A60A94A1C3212688A43A74BB5
:100F50001C331A60027BCAB9A44A0C3212688A4355
:100F6000A24B0C331A604288C38842EA03439F4A6B
:100F70004032847A42F834300288838842EA03435C
:100F80009A4A4032847A02EBC4025360027B012AFF
:100F900019D1964A0C3212680A43944B0C331A60EA
:100FA0004288038842EA0343904A4032847A42F8F6
:100FB0003430C288838842EA03438C4A4032847AC0
:100FC00002EBC4025360C27A3AB9884A121D126811
:100FD0008A43864B1B1D1A6006E0844A121D126864
:100FE0000A43824B1B1D1A60028932B97F4A1432B0
:100FF00012688A437D4B14331A600289012A06D194
:101000007A4A143212680A43784B14331A60427BCE
:10101000012A06D1754A1C3212680A43734B1C33ED
:101020001A60724A126822F00102704B1A6010BDF9
:1010300000218171C171017241728172C17281702E
:10104000C1700321017102214171012101807047AA
:101050006649096841F00101644A11601146096856
:1010600043F60E729143614A11601146096841EAE4
:10107000002111601146096821F0010111607047DB
:1010800021B1026842F48032026003E0026822F477
:10109000803202607047E1B1026842F08002026073
:1010A0004FF4C272125842F480734FF4C27213505C
:1010B0004FF4CA72125842F480734FF4CA7213503C
:1010C0004FF4D272125842F480734FF4D27213501C
:1010D0001BE0026822F0800202604FF4C2721258D4
:1010E00022F480734FF4C27213504FF4CA72125834
:1010F00022F480734FF4CA7213504FF4D272125814
:1011000022F480734FF4D2721350704710B5024628
:101110000020936803F08063B3F1806F00D110E08A
:10112000936803F00063B3F1006F01D1012008E080
:10113000936803F08053B3F1805F01D1022000E097
:101140000420042879D002F5C07303EB00131B6858
:1011500003F0010402F5C07303EB00131C600B7A6B
:101160007BB94B7A0C8843EA445302F5C07404EB14
:1011700000142468234302F5C07404EB00142360B8
:1011800010E00B7A4C6843EAC4034C7A234302F51F
:10119000C07404EB00142468234302F5C07404EB0C
:1011A000001423608B7A03F00F038B7202F5C07377
:1011B00003EB00135B6823F00F0402F5C07303EB2D
:1011C00000135C6002F5C07303EB00135B688C7A5C
:1011D000234302F5C07404EB001463608B7B1C0690
:1011E0004B7B44EA034403E0006400400066004097
:1011F0000B7B44EA0323CC7A234302F5C07404EB4F
:101200000014A3608B7C1C064B7C44EA03440B7CDB
:1012100044EA0323CC7B234302F5C07404EB00149F
:10122000E36002F5C07303EB00131B6843F0010495
:1012300002F5C07303EB00131C6010BD10B502462D
:10124000002321B1012907D002290FD109E09068BC
:10125000F94C00EA04030BE09068F84C00EA040340
:1012600006E09068F64C00EA040301E0002300BFAA
:1012700000BFF44C181BA34216D007DC83B16FF0FB
:101280008060184470B1022818D111E0B0F5007FD9
:1012900010D0ED4C204448B1B0F5003F0ED10BE02A
:1012A00002230DE000230BE0002309E0002307E008
:1012B000012305E0012303E0012301E0002300BF37
:1012C00000BFD8B210BD21B1012907D002290FD12A
:1012D00009E0826842F0800282600AE0826842F49B
:1012E0000042826005E0826842F40002826000E011
:1012F00000BF00BF704710B500F5D87303EB0113B2
:101300001B6803F004031372137A53B900F5D87302
:1013100003EB01131B6840F2FF7404EA535313609C
:1013200009E000F5D87303EB01131B686FF060440C
:1013300004EAD303536000F5D87303EB01131B6871
:1013400003F00203537200F5D87303EB01135B68DB
:1013500003F00F03937200F5D87303EB01135B687E
:101360001B0AD37400F5D87303EB01139B68D37287
:1013700000F5D87303EB01139B681C0A147300F586
:10138000D87303EB01139B681C0C547300F5D873DE
:1013900003EB01139B681B0E937300F5D87303EBEB
:1013A0000113DB68D37300F5D87303EB0113DB681B
:1013B0001C0A147400F5D87303EB0113DB681C0CD2
:1013C000547400F5D87303EB0113DB681B0E9374A0
:1013D00021B9C36843F02003C36003E0036943F00D
:1013E0002003036110BD21B9C26842F02002C2602F
:1013F00003E0026942F020020261704702460020C9
:1014000019B9D36803F0030006E0012903D1136979
:1014100003F0030000E00020704710B502460B46C1
:1014200000204FF6FF71BBB9146824F0020444F0A9
:101430000104146000E0491E546804F00304012C08
:1014400001D00029F7D1546804F00304012C01D025
:10145000002032E0012030E0012B13D1146824F089
:101460000304146000E0491E546804F003040CB146
:101470000029F8D1546804F003040CB100201CE0EA
:1014800001201AE0022B17D1146824F0010444F063
:101490000204146000E0491E546804F00304022CA6
:1014A00001D00029F7D1546804F00304022C01D0C4
:1014B000002002E0012000E0002010BD01460020D5
:1014C0000A6822F0010242F002020A604A6802F051
:1014D0000302022A00D10120704701464FF6FF7235
:1014E00000200B6823F002030B6000E0521E4B68E3
:1014F00003F00203022B01D1002AF7D14B6803F05D
:101500000203022B00D001207047014600208A69A7
:1015100002F070007047014600208A69100E704783
:10152000014600208A69C2F3074070471AB1436937
:101530000B43436102E043698B434361704710B53D
:101540000246002001F4700343B19369C1F3130410
:1015500023400BB101202DE000202BE001F080732F
:1015600043B15368C1F3130423400BB1012021E0C0
:1015700000201FE001F0006343B19368C1F313043E
:1015800023400BB1012015E0002013E001F00073AF
:1015900043B1D368C1F3130423400BB1012009E028
:1015A000002007E01369C1F3130423400BB10120AD
:1015B00000E0002010BD0022244B994202D10023FC
:1015C000836111E0C1F3130201F000730BB1C2603B
:1015D0000AE001F080630BB1026105E001F00063F5
:1015E0000BB1826000E0426070470246002002EAD0
:1015F00001030BB1012000E00020704770B50446E4
:101600000D46002660692840002872D0B5F5807F1D
:1016100069D01DDC082D42D006DC012D2DD0022D15
:1016200031D0042D7FD134E0102D3ED0202D42D07A
:10163000402D78D145E000000300000400030008BD
:1016400000000310000100080001FFF77000F030F7
:10165000B5F5004F61D009DCB5F5007F4AD0B5F58E
:10166000806F4DD0B5F5006F5DD150E0B5F5803F8E
:101670002DD0B5F5003F56D12FE0A0685549FFF7B2
:10168000B4FF064651E0E0680321FFF7AEFF0646CF
:101690004BE0E0680821FFF7A8FF064645E0E06858
:1016A0001021FFF7A2FF06463FE020690321FFF764
:1016B0009CFF064639E020690821FFF796FF0646A1
:1016C00033E020691021FFF790FF06462DE06068A7
:1016D0000821FFF78AFF064627E060681021FFF720
:1016E00084FF064621E0A0690121FFF77EFF064640
:1016F0001BE01BE0A0690221FFF777FF064614E01C
:10170000A0690421FFF771FF06460EE00BE0A06917
:101710007021FFF76AFF064607E060680421FFF7C3
:1017200064FF064601E0002600BF00E000263046C8
:1017300070BDB1F5007F3AD00FDC202928D006DC3F
:1017400001291CD004291DD0082940D11DE04029C1
:1017500021D0B1F5807F3AD126E0B1F5004F31D0EC
:1017600006DCB1F5806F25D0B1F5006F2FD124E0F4
:10177000B1F5803F12D0B1F5003F28D111E0154AF4
:10178000826025E00822C26022E01022C2601FE0D1
:10179000082202611CE01022026119E00822426066
:1017A00016E01022426013E00422426010E004229E
:1017B00042600DE0042242600AE0002282610422BD
:1017C000426005E0002282610422426000E000BF26
:1017D00000BF70470101010001684FF6FE72114021
:1017E00001600021016041608160C1608D498842D3
:1017F00008D18C490839496841F00F01894A083AF3
:1018000051608AE087491431884208D185490839F6
:10181000496841F0F001834A083A51607DE081490E
:101820002831884208D17F490839496841F47061FC
:101830007C4A083A516070E07A493C31884208D1CC
:1018400078490839496841F47041764A083A51604C
:1018500063E074495031884208D1724908394968B7
:1018600041F470216F4A083A516056E06D49643185
:10187000884208D16B490839496841F47001694AC6
:10188000083A516049E067497831884208D1654992
:101890000839496841F07061624A083A51603CE099
:1018A0006149884206D1011F096841F00F01021FFA
:1018B000116032E05C491431884208D15A49091F4D
:1018C000096841F0F001584A121F116025E056499D
:1018D0002831884208D15449091F096841F47061D0
:1018E000514A121F116018E04F493C31884208D11B
:1018F0004D49091F096841F470414B4A121F11609C
:101900000BE049495031884207D14749091F09680E
:1019100041F47021444A121F1160704710B5002233
:10192000026847F6F0739A430C6A8B6823430C698C
:1019300023434C6923438C692343CC6923434C6A7A
:1019400023438C6A23431A430260CB6843600B68CD
:1019500083604B68C36010BD0021016041608160FD
:10196000C160016141618161C16101624162816265
:10197000704721B1026842F00102026004E002688F
:101980004FF6FE731A40026070471AB103680B43AA
:10199000036002E003688B43036070474160704757
:1019A0000146486880B2704701460020002201F0DD
:1019B00080531BB11C4B083B1A6802E0194B083BD3
:1019C0001A6802EA01030BB1012000E00020704711
:1019D00000F0805119B11449091F086002E0114953
:1019E00008394860704701460020002201F080530A
:1019F0001BB10D4B083B1A6802E00A4B083B1A6802
:101A000002EA01030BB1012000E00020704700F062
:101A1000805119B10449091F086002E001490839E1
:101A20004860704708000240080402400146002058
:101A3000FE4A106800F03800084310607047FB4908
:101A4000096821F00801F94A11601146096801434B
:101A500011607047F549096821F01001F34A1160DF
:101A600011460968014311607047F148EF49486029
:101A7000F0484860EE484864EE4848647047EC48D7
:101A8000EA494860EB4848607047E948E7494864DC
:101A9000E84848647047E548006940F08000E34941
:101AA00008610846006D40F0800008657047DF4817
:101AB000006940F08000DD4908617047DB48006D37
:101AC00040F08000D949086570470420D749C96CA7
:101AD00001F0010109B101200EE0D449C96C01F007
:101AE000040109B1022007E0D049C96C01F01001DE
:101AF00009B1032000E00420704700B5024604232A
:101B0000FFF7E3FF034603E0FFF7DFFF0346521E44
:101B1000012B01D1002AF7D102B90523184600BDD7
:101B20000420C249C96801F0010109B101200EE099
:101B3000BE49C96801F0040109B1022007E0BB49B0
:101B4000C96801F0100109B1032000E004207047CA
:101B500000B502460423FFF7E3FF034603E0FFF767
:101B6000DFFF0346521E012B01D1002AF7D102B933
:101B70000523184600BD30B504460425AE4884420E
:101B80001FD24FF43020FFF7E3FF0546042D37D175
:101B9000A648006940F00200A44908610846446173
:101BA000006940F0400008614FF43020FFF7D0FF9B
:101BB00005469E48006941F6FD7108409B49086151
:101BC0001EE04FF43020FFF798FF0546042D17D193
:101BD0009648006D40F00200944908650846446547
:101BE000006D40F0400008654FF43020FFF785FF9E
:101BF00005468E48006D41F6FD7108408B49086529
:101C0000284630BD10B504244FF43020FFF7A0FF64
:101C10000446042C16D18548006940F0040083492D
:101C200008610846006940F0400008614FF4302028
:101C3000FFF78EFF04467D48006941F6FB710840BE
:101C40007A490861042C16D17848006D40F00400F0
:101C5000764908650846006D40F0400008654FF47D
:101C60003020FFF74AFF04467048006D41F6FB71D3
:101C700008406E490865204610BD10B504244FF495
:101C80003020FFF765FF0446042C16D16748006931
:101C900040F00400654908610846006940F04000D2
:101CA00008614FF43020FFF753FF04465F48006996
:101CB00041F6FB7108405D490861204610BD10B532
:101CC00004244FF43020FFF718FF0446042C16D1EB
:101CD0005648006D40F00400544908650846006D00
:101CE00040F0400008654FF43020FFF706FF04463F
:101CF0004E48006D41F6FB7108404C49086520468E
:101D000010BD00B502460423FFF70AFF034603E0B7
:101D1000FFF706FF0346521E012B01D1002AF7D11F
:101D200002B90523184600BD00204049C96901F0E9
:101D3000020109B1012000E00020704730B5A5255F
:101D40000424FFF7F1FF00B100254FF43020FFF726
:101D5000D8FF0446042C3AD13548344988603548C8
:101D600088600846006940F0200008610846006964
:101D700040F0400008614FF43020FFF7C2FF0446F6
:101D8000042C1BD12948006941F6DF71084027491E
:101D900008610846006940F0100008612748058086
:101DA000E002FFF7AEFF0446052C10D01F48006983
:101DB00041F6EF7108401D49086108E0052C06D086
:101DC0001A48006941F6EF71084018490861204639
:101DD00030BD78B504460D46042600200090164814
:101DE000801E844236D2F002FFF7B2FE0646042E71
:101DF00027D10E48006940F001000C490861258098
:101E0000F002FFF77EFF0646042E1BD1A01C0090B7
:101E1000280C00990880F002FFF773FF064603487C
:101E2000006941F6FE710840004909E000200240C7
:101E300023016745AB89EFCDFFFF070800F8FF1FBF
:101E400008617DE0F748006941F6FE710840F549F8
:101E5000086175E0F448844246D14FF40050FFF722
:101E600077FE0646042E12D1EE48006940F00100CC
:101E7000EC4908612580F002FFF76AFE0646E94852
:101E8000006941F6FE710840E649086106E0E54850
:101E9000006941F6FE710840E24908614FF40050C4
:101EA000FFF72BFE0646042E16D1DE48006D40F0EB
:101EB0000100DC490865A01C0090280C00990880EE
:101EC000F002FFF71AFE0646D648006D41F6FE7195
:101ED0000840D449086533E0D248006D41F6FE71F0
:101EE0000840D04908652BE04FF40050FFF705FE8D
:101EF0000646042E24D1CB48006D40F00100C949AC
:101F000008652580F002FFF7F8FD0646042E10D183
:101F1000A01C0090280C00990880F002FFF7EDFD4E
:101F20000646C048006D41F6FE710840BD4908658F
:101F300006E0BC48006D41F6FE710840B9490865ED
:101F4000304678BD70B504460D460426F002FFF712
:101F5000D8FE0646B448401C844214D2042E26D132
:101F6000B048006940F00100AE4908612580F002E8
:101F7000FFF7EEFD0646AB48006941F6FE710840EA
:101F8000A849086113E0042E11D1A648006D40F065
:101F90000100A44908652580F002FFF7AEFD064662
:101FA000A048006D41F6FE7108409E490865304624
:101FB00070BD70B505460E460424E002FFF7A1FE91
:101FC0000446042C17D1994896498860984888603F
:101FD0000846006940F0100008612E80E002FFF71B
:101FE00090FE0446052C06D08E48006941F6EF713C
:101FF00008408C490861204670BD2DE9F043044635
:102000004FF6FF763746B046B1460425E443E6B2C4
:10201000C4F30727C4F307484FEA1469E802FFF73F
:1020200070FE0546042D3FD180487E498860804877
:1020300088600846006940F010000861FF2E05D056
:102040007C480680E802FFF75CFE0546042D08D1B7
:10205000FF2F06D07748801C0780E802FFF751FE6B
:102060000546042D0AD1B8F1FF0F07D07148001DB5
:10207000A0F80080E802FFF744FE0546042D0AD1CF
:10208000B9F1FF0F07D06B48801DA0F80090E8025F
:10209000FFF737FE0546052D06D06248006941F678
:1020A000EF7108405F4908612846BDE8F08330B50C
:1020B000054604244FF43020FFF723FE0446042C89
:1020C00043D15A4857498860594888600846006992
:1020D00040F0200008610846006940F040000861B7
:1020E0004FF43020FFF70DFE0446042C24D14D4858
:1020F000006941F6DF7108404A49086108460069F5
:1021000040F01000086125B100204A4908390880D4
:1021100003E0A5204749083908804FF43020FFF735
:10212000F0FD0446052C10D03E48006941F6EF71E1
:1021300008403C49086108E0052C06D03948006990
:1021400041F6DF71084037490861204630BDF0B5DF
:1021500005460E4617460424344832498860344800
:102160008860E002FFF7CDFD0446042C19D12D480C
:10217000006940F010002B49086147F0F800304337
:1021800028432C49891F0880E002FFF7BAFD044666
:10219000052C06D02348006941F6EF71084021491B
:1021A00008612046F0BD30B5054604241F481D498E
:1021B00088601F488860E002FFF7A3FD0446042CF6
:1021C00026D11848006940F010001649086145B949
:1021D0001848801F008840F008001649891F0880B1
:1021E00008E01448801F00884FF6F7710840114935
:1021F000891F08804FF40050FFF783FD0446052C2B
:1022000006D00848006941F6EF71084005490861A9
:10221000204630BD0348C069800870470148006A05
:102220007047000000200240FEFF070823016745B9
:10223000AB89EFCD08F8FF1F00203549096801F090
:10224000200109B1012000E00020704700F00042A9
:1022500082B139B12E4A126D20F000431A432C4B43
:102260001A6513E02A4A126D20F000439A43284B66
:102270001A650BE029B1264A12690243244B1A6100
:1022800004E0234A12698243214B1A6170470146D8
:102290000020012908D11E4AD26902F001020AB1C8
:1022A000012013E0002011E001F000423AB1184A89
:1022B000D26C0A400AB1012008E0002006E0144A6E
:1022C000D2680A400AB1012000E00020704700F007
:1022D000004111B10E49C86401E00D49C860704762
:1022E00004200B49C96801F0010109B101200EE089
:1022F0000749C96801F0040109B1022007E0044957
:10230000C96801F0100109B1032000E00420704702
:102310000020024010B50446CC48844208D1012177
:10232000042000F02DFB0021042000F029FB46E0F2
:10233000C748844208D10121082000F021FB002178
:10234000082000F01DFB3AE0C248844208D1012178
:10235000102000F015FB0021102000F011FB2EE0F2
:10236000BD48844208D10121202000F009FB002152
:10237000202000F005FB22E0B848844208D101216A
:10238000402000F0FDFA0021402000F0F9FA16E0AC
:10239000B348844208D10121802000F0F1FA0021E5
:1023A000802000F0EDFA0AE0AE48844207D1012116
:1023B000801500F0E5FA0021A01500F0E1FA10BD4B
:1023C00010B50121084600F0DBFA0021012000F0E1
:1023D000D7FA10BD2DE9F041024600250026002065
:1023E00000230024002791F803C00CF00F0591F89A
:1023F00003C00CF0100CBCF1000F03D091F802C028
:102400004CEA050591F800C0BCF1000F31D014680A
:1024100000202BE04FF0010C0CFA00F3B1F800C0E3
:102420000CEA03069E4220D183004FF00F0C0CFAF9
:1024300003F7BC4305FA03FC4CEA040491F803C01B
:10244000BCF1280F06D14FF0010C0CFA00FCC2F8C9
:1024500014C00AE091F803C0BCF1480F05D14FF059
:10246000010C0CFA00FCC2F810C0401C0828D1D3A3
:102470001460B1F800C0BCF1FF0F34DD54680020D7
:102480002EE000F1080C4FF0010808FA0CF3B1F847
:1024900000C00CEA03069E4221D183004FF00F0CCE
:1024A0000CFA03F7BC4305FA03FC4CEA040491F868
:1024B00003C0BCF1280F05D100F1080C08FA0CF894
:1024C000C2F8148091F803C0BCF1480F07D100F1A5
:1024D000080C4FF0010808FA0CF8C2F81080401CF4
:1024E0000828CED35460BDE8F0814FF6FF7101801B
:1024F000022181700421C170704702460020936858
:102500000B400BB1012000E00020704701468868B5
:1025100080B2704702460020D3680B400BB1012007
:1025200000E0002070470146C86880B27047016132
:102530007047416170470AB1016100E04161704735
:10254000C16070474FF480320A43826181618261C9
:1025500082698269704702460020434B18684FF633
:102560008073184040EA021008433F4B18607047E0
:102570003E49C8617047F0B50A4600230024002197
:10258000002500F00046B6F1004F02D1364EF16949
:1025900001E0354E7168C0F3034583B200F4401684
:1025A000B6F5401F08D121F070612F4E766826F0F5
:1025B00070662D4F7E6012E000F48016B6F5801F25
:1025C00006D1032606FA05F4A14341F0706106E046
:1025D000460D360103FA06F6B14341F0706122B1AF
:1025E000460D360103FA06F6314300F00046B6F117
:1025F000004F02D11C4EF16101E01B4E7160F0BD35
:1026000030B500228B071C0F0F2303FA04F2164B80
:1026100008338C1053F824309343134C08348D1036
:1026200044F8253023468C1053F824308C07240FAF
:1026300000FA04F423430C4C08348D1044F8253080
:1026400030BD0A49DC3108607047000000080140D5
:10265000000C01400010014000140140001801402E
:10266000001C014000200140000001400000204209
:10267000DF48006840F00100DD4908600846406816
:10268000DC490840DA49486008460068DA490840F1
:10269000D74908600846006820F480200860084692
:1026A000406820F4FE0048604FF41F0088607047C7
:1026B000CF49096821F48031CD4A1160114609687B
:1026C00021F480211160B0F5803F03D0B0F5802F58
:1026D0000ED106E0C649096841F48031C44A116050
:1026E00007E0C349096841F4A021C14A116000E034
:1026F00000BF00BF704710B5014600220023002034
:102700004A11012A02D1BA4C236806E0022A02D1FA
:10271000B74C236A01E0B64C636A01F01F02012442
:1027200094401C400CB1012000E0002010BD38B5E1
:10273000002000900024002500BF3120FFF7DBFFC0
:1027400005460098401C00900098B0F5A06F01D09D
:10275000002DF2D03120FFF7CEFF08B1012400E0B8
:102760000024204638BD01460020A14A106820F010
:10277000F80040EAC10010607047A0490860704747
:10278000024600209A4B586820F47C1042EA01036C
:102790001843974B58607047984908667047014640
:1027A0000020934A506820F00300084350607047AF
:1027B0008F48406800F00C007047014600208C4AAA
:1027C000506820F0F0000843506070470146002038
:1027D000874A506820F4E060084350607047014623
:1027E0000020834A506820F4605040EAC1005060E5
:1027F000704729B17E4A527A02437D4B5A7204E0F7
:102800007B4A527A82437A4B5A7270477B49D8315D
:102810000860704701460020754A506820F4404027
:102820000843506070470021714A20321170704A8D
:1028300082F82010012802D004280AD104E00121E6
:102840006B4A2032117005E00521694A203211706F
:1028500000E000BF00BF70476949086070476449E5
:10286000096A0143624A1162704765494439086048
:10287000704730B500210022002400235C4D6D68B4
:1028800005F00C0121B1042905D0082923D105E068
:102890005C4D056022E05B4D05601FE0544D6D68A6
:1028A00005F47012524D6D6805F48034022505EB75
:1028B00092421CB9544D554305600BE04C4D6D6878
:1028C00005F400351DB1504D5543056002E04D4DF6
:1028D0005543056002E04B4D056000BF00BF444D0D
:1028E0006D6805F0F0010909484D6B5C0568DD4035
:1028F00045603F4D6D6805F4E061090A434D6B5C2E
:102900004568DD4085603A4D6D6805F46051C90A3F
:102910003E4D6B5C4568DD40C560354D6D6805F426
:102920004041890B3A4D6B5CC568B5FBF3F5056119
:1029300030BD29B12E4A526902432D4B5A6104E041
:102940002B4A526982432A4B5A61704729B1284A5F
:1029500092690243264B9A6104E0254A92698243B8
:10296000234B9A61704729B1214AD2690243204B17
:10297000DA6104E01E4AD26982431D4BDA61704776
:1029800029B11B4AD2680243194BDA6004E0184AA5
:10299000D2688243164BDA60704729B1144A126933
:1029A0000243134B1A6104E0114A12698243104B2F
:1029B0001A61704712494039086070470F49C8646E
:1029C00070470B49C87170470948406A40F08070F1
:1029D00007494862704701460020054A92680A404C
:1029E0000AB1012000E00020704701498872704759
:1029F000001002400000FFF8FFFFF6FE0000424218
:102A00008004424200127A0000093D0018000020B4
:102A10002800002010B50446FE48844208D1012158
:102A2000C014FFF7ADFF0021E014FFF7A9FFC4E0D9
:102A3000B4F1804F08D101210846FFF7AEFF002115
:102A40000120FFF7AAFFB8E0F348844208D1012132
:102A50000220FFF7A2FF00210220FFF79EFFACE05B
:102A6000EE48844208D101210420FFF796FF00219F
:102A70000420FFF792FFA0E0E948844208D1012139
:102A80000820FFF78AFF00210820FFF786FF94E067
:102A9000E448844208D101211020FFF77EFF002185
:102AA0001020FFF77AFF88E0DF48844208D1012137
:102AB0002020FFF772FF00212020FFF76EFF7CE04F
:102AC000DA48844208D101214014FFF759FF002160
:102AD0006014FFF755FF70E0D548844209D1012109
:102AE000C804FFF74DFF00214FF40020FFF748FF17
:102AF00063E0D048844209D101210805FFF740FF77
:102B000000214FF48010FFF73BFF56E0CA48844293
:102B100009D101214805FFF733FF00214FF40010D0
:102B2000FFF72EFF49E0C548844208D1012140202B
:102B3000FFF733FF00214020FFF72FFF3DE0C048A3
:102B4000844208D101218020FFF727FF0021802047
:102B5000FFF723FF31E0BB48844208D101218015F3
:102B6000FFF71BFF0021A015FFF717FF25E0B64870
:102B7000844209D101210804FFF702FF00214FF42C
:102B80008030FFF7FDFE18E0B048844209D10121F2
:102B90004804FFF7F5FE00214FF40030FFF7F0FE88
:102BA0000BE0AB48844208D101218804FFF7E8FE1E
:102BB00000214FF48020FFF7E3FE10BD00220288C1
:102BC000944B98420ED0994B98420BD0B0F1804F65
:102BD00008D0914B984205D0904B984202D0904B30
:102BE000984204D14FF68F731A404B881A438D4B8D
:102BF000984207D08C4B984204D04FF6FF431A40BE
:102C0000CB881A4302808B8883850B880385814B90
:102C100098420BD0854B984208D08B4B984205D0F8
:102C20008A4B984202D08A4B984201D10B7A038694
:102C300001238382704770B5002400220023058C95
:102C40004FF6FE7635400584028C8388048B4FF660
:102C50008F752C40B51E2C400D882C43751E2A40C4
:102C60000D892A434D882A436A4DA8420BD06F4DE7
:102C7000A84208D0744DA84205D0744DA84202D095
:102C8000734DA84213D14FF6F7752A404D892A4358
:102C90004FF6FB752A408D882A434FF6FF652B407F
:102CA0004FF6FF552B408D892B43CD892B438380D5
:102CB0000483CD888586028470BD70B5002400220F
:102CC0000023058C4FF6EF7635400584028C83880F
:102CD000048B48F6FF752C404FF6FF452C400D88BD
:102CE0004FF6FF7606EA05252C434FF6DF752A409E
:102CF0000D8906EA05152A434D8806EA05152A437B
:102D0000444DA84202D0494DA8421DD14FF67F75CF
:102D10002A404D894FF6FF7606EA05152A434FF6FD
:102D2000BF752A408D8806EA05152A434FF6FF3500
:102D30002B404FF2FF752B408D8906EA85052B430A
:102D4000CD8906EA85052B4383800483CD880587DA
:102D5000028470BD70B5002400220023058C4FF65C
:102D6000FF6635400584028C8388848B4FF68F750F
:102D70002C404FF6FC752C400D882C434FF6FF5528
:102D80002A400D894FF6FF7606EA05252A434D882D
:102D900006EA05252A431F4DA84202D0234DA8422A
:102DA0001DD14FF2FF752A404D894FF6FF7606EA96
:102DB00005252A434FF6FF352A408D8806EA05256A
:102DC0002A434EF6FF752B404DF6FF752B408D893B
:102DD00006EA05152B43CD8906EA05152B438380AA
:102DE0008483CD888587028470BD70B5002200235E
:102DF0000024058C4EF6FF7635400584038C8488CC
:102E0000828B48F6FF752A404FF6FF452A400D8811
:102E100020E00000002C01400004004000080040B9
:102E2000000C00400010004000140040003401403D
:102E3000004C014000500140005401400018004087
:102E4000001C0040002000400040014000440140C0
:102E5000004801404FF6FF7606EA05252A434DF665
:102E6000FF752B400D8906EA05352B434D8806EA90
:102E700005352B43FA4DA84202D0FA4DA84208D19D
:102E80004BF6FF752C408D894FF6FF7606EA8515C7
:102E90002C4384808283CD88A0F84050038470BD89
:102EA000828B4FF2FF331A408283828B4FF6FF737F
:102EB00003EA01231A4382837047F0B50C46154696
:102EC000002200210026078C4EF6FF7C07EA0C0743
:102ED0000784828B018C4FF6FF7707EA043640F6B1
:102EE000FF473A404FF6FF7707EA05273A434FF688
:102EF000FF7707EA03373A43D94FB8420ED0D94F8C
:102F0000B8420BD0B0F1804F08D0D74FB84205D0AF
:102F1000D64FB84202D0D64FB84206D14DF6FF7711
:102F2000394046F48057394305E047F6FF573940AA
:102F300044F48057394382830184F0BD828B4FF67D
:102F4000F3731A408283828B0A4382837047F0B501
:102F50000C461546002200210026078C4FF6FF6C18
:102F600007EA0C070784828B018C4FF6FF7707EA8C
:102F700004264FF60C773A404FF6FF7707EA03171F
:102F80002F433A43B64FB8420ED0B64FB8420BD09B
:102F9000B0F1804F08D0B44FB84205D0B34FB8421B
:102FA00002D0B34FB84206D14FF6FF57394046F42E
:102FB0008077394305E04FF2FF57394044F480777A
:102FC000394382830184F0BD028B4FF2FF331A40F4
:102FD0000283028B4FF6FF7303EA01231A43028335
:102FE0007047F0B50C461546002200210026078CDC
:102FF0004FF6EF7C07EA0C070784028B018C4FF633
:10300000FF7707EA041640F6FF473A404FF6FF778E
:1030100007EA03373A434FF6FF7707EA05273A43B3
:103020008F4FB8420ED08F4FB8420BD0B0F1804FC7
:1030300008D08D4FB84205D08C4FB84202D08C4F8B
:10304000B84206D14FF6DF77394046F010073943D2
:1030500005E04FF65F77394044F0100739430283AB
:103060000184F0BD028B4FF6F3731A400283028B8A
:103070000A4302837047F0B50C4615460022002132
:10308000068C4FF6FE773E400684028B018C4FF68D
:103090000C7632407E1C06EA03162E433243704EF5
:1030A000B0420ED06F4EB0420BD0B0F1804F08D07E
:1030B0006D4EB04205D06D4EB04202D06C4EB04263
:1030C00006D14FF6FD76314044F00106314305E06C
:1030D0004FF6F576314044F0010631430283018416
:1030E000F0BD70B505460C465D4885420ED05D4882
:1030F00085420BD0B5F1804F08D05B48854205D0A2
:103100005A48854202D05A48854200D100E000BFAB
:10311000208850B92389A28861882846FFF7ABFF31
:10312000E1882846FFF79EFF25E0208804280AD181
:103130002389A28861882846FFF753FFE188284643
:10314000FFF742FF17E0208808280AD12389A288C8
:1031500061882846FFF7FBFEE1882846FFF7EEFE70
:1031600009E02389A28861882846FFF7A6FEE18846
:103170002846FFF795FE70BD2DE9F04105460C4647
:1031800000260127608808B9022600E00026A088F2
:10319000012801D1022700E001272088A0B9238956
:1031A000A28861882846FFF766FFE1882846FFF776
:1031B00059FF23893A4631462846FFF712FFE18836
:1031C0002846FFF701FF13E02389A288618828467B
:1031D000FFF707FFE1882846FFF7F6FE23893A4606
:1031E00031462846FFF747FFE1882846FFF73AFFB8
:1031F000BDE8F0810A884B881A438B881A43CB8834
:103200001A430B891A434B891A438B891A43A0F836
:10321000442070474FF6FF71818000210180C180FA
:103220004180017270470021018041808180C1800E
:10323000018141818181C1817047002101804180EC
:10324000012181800021C18001817047002101801E
:1032500041808180C180018141818181704700006E
:10326000002C0140003401400004004000080040F0
:10327000000C004021B1028842F00102028004E00B
:1032800002884FF6FE731A400280704731B1B0F8E1
:10329000442042F40042A0F8442005E0B0F8442065
:1032A000C2F30E02A0F8442070471AB183890B4381
:1032B000838102E083898B438381704781827047D9
:1032C00041EA0203A0F8483070471AB183890B43E2
:1032D000838102E083898B438381704701894FF6A4
:1032E000F8721140018170470A46002101894FF6AA
:1032F0008F73194011430181704730B504460D4664
:1033000029462046FFF7F0FF208940F00700208182
:1033100030BD2DE9F04104460D4616461F46602D8E
:1033200006D13B46012231462046FFF75AFE05E012
:103330003B46012231462046FFF79DFE29462046A6
:10334000FFF7D2FF208940F007002081BDE8F0811F
:1033500030B50C4600210189C9B24FF6FF7505EA68
:103360000325154325432943018130BD2DE9F04153
:1033700005460E4617469846002443463A463146CF
:103380002846FFF7E5FF2C894FF6F870044044F01B
:1033900007044FF68F70044044F070042C81BDE8A0
:1033A000F081F0B504460D4616461F463B463246B0
:1033B00029462046FFF7CCFF208940F48040208139
:1033C000F0BD0185828270470A46002101884FF6D0
:1033D0008F731940114301807047F0B50C461546B4
:1033E0001E460021002200230189028B038C4FF628
:1033F000F877394021434FF6FC473A4040F2011735
:103400003A434FF6DD773B404FF6FF7707EA061762
:103410002F433B43018102830384F0BD0A46002110
:10342000018B4FF68F7319401143018370470A4691
:103430000021018B48F6FF7319404FF6FF7303EA32
:1034400002231943018370470A460021818B4FF6FE
:103450008F7319401143818370470A460021818B85
:1034600048F6FF7319404FF6FF7303EA022319432E
:103470008183704721B1028842F08002028004E01B
:1034800002884FF67F731A400280704721B182880C
:1034900042F00402828004E082884FF6FB731A40F7
:1034A0008280704721B1828842F00802828004E065
:1034B00082884FF6F7731A408280704721B1828864
:1034C00042F00102828004E082884FF6FE731A40C7
:1034D000828070470A460021018B4FF6F77319402E
:1034E0001143018370470A460021018B4FF2FF739D
:1034F00019404FF6FF7303EA022319430183704713
:103500000A460021818B4FF6F773194011438183DE
:1035100070470A460021818B4FF2FF7319404FF626
:10352000FF7303EA02231943818370470A4600218F
:10353000018B4FF6FB7319401143018370470A4614
:103540000021018B4FF6FF3319404FF6FF7303EA5A
:1035500002231943018370470A460021818B4FF6ED
:10356000FB7319401143818370470A460021818B08
:103570004FF6FF3319404FF6FF7303EA0223194356
:10358000818370470A460021018B4FF67F731940F3
:103590001143018370470A460021018BC1F30E01DC
:1035A0004FF6FF7303EA02231943018370470A466B
:1035B0000021818B4FF67F7319401143818370473F
:1035C0000A460021818BC1F30E014FF6FF7303EA17
:1035D00002231943818370470A460021018C4FF66C
:1035E000FD7319401143018470470A460021018C84
:1035F0004FF6F77319401143018470470A460021C2
:10360000018C4FF6DF7319404FF6FF7303EA021384
:103610001943018470470A460021018C4FF67F73DD
:1036200019404FF6FF7303EA0213194301847047F0
:103630000A460021018C4FF6FF5319404FF6FF73E5
:1036400003EA02231943018470470A460021018CD2
:103650004FF2FF7319404FF6FF7303EA0223194339
:10366000018470470A460021018C4DF6FF73194012
:103670004FF6FF7303EA023319430184704730B5F4
:10368000002301248C40A3B2048C9C430484048C4A
:1036900002FA01F5ADB22C43048430BD30B50023ED
:1036A00004248C40A3B2048C9C430484048C02FA4E
:1036B00001F5ADB22C43048430BD70B50346002043
:1036C00000241846183001258D40ACB21D8CA5434E
:1036D0001D8409B1082909D100EB6100056825F0B6
:1036E000700505600568154305600EE00D1FC5F304
:1036F0004E052844056825F4E045056005684FF649
:10370000FF7606EA02263543056070BD21B10288C6
:1037100042F00202028004E002884FF6FD731A4074
:103720000280704721B1028842F00402028004E066
:1037300002884FF6FB731A400280704721B18288DD
:1037400042F08002828004E082884FF67F731A4044
:103750008280704702884FF6F7731A400280028811
:103760000A430280704782884FF68F731A40828026
:1037700082880A438280704702894FF6F8731A40A4
:10378000028102890A430281704702894FF67F73E2
:103790001A40028102890A4302817047818470477E
:1037A00081857047818670470187704781877047A0
:1037B000A0F84010704702884FF6FF431A4002807D
:1037C00002880A43028070470146888E704701468E
:1037D000088F70470146888F70470146B1F8400056
:1037E00070470146888C70470146088D7047024635
:1037F0000020138A0B400BB1012000E0002070472D
:10380000CA430282704730B50246002000230024DC
:10381000158A05EA0103958905EA010413B10CB183
:10382000012000E0002030BDCA4302827047000042
:1038300010B50446FB48844209D101218803FFF7F3
:103840009FF800214FF48040FFF79AF832E0F648E5
:10385000844209D101214804FFF79FF800214FF469
:103860000030FFF79AF825E0F048844209D10121A1
:103870008804FFF792F800214FF48020FFF78DF8BD
:1038800018E0EB48844209D10121C804FFF785F80C
:1038900000214FF40020FFF780F80BE0E548844258
:1038A00008D101210805FFF778F800214FF48010B6
:1038B000FFF773F810BD2DE9F04786B005460E46B8
:1038C0000024A24600BFA1460027B08900B100BF76
:1038D0002F462C8A4CF6FF700440F08804432C825B
:1038E000AC894EF6F3100440B088318908437189E1
:1038F00008430443AC81AC8A4FF6FF400440B089D2
:103900000443AC8201A8FEF7B4FFC648874202D147
:10391000DDF810A001E0DDF80CA0A88900F400405B
:1039200040B10AEBCA0000EB0A1031684900B0FB55
:10393000F1F807E00AEBCA0000EB0A1031688900D1
:10394000B0FBF1F86420B8FBF0F004012009642119
:1039500001FB1089A88900F4004040B1322000EB3F
:10396000C900B0FBF1F000F00700044308E032208A
:1039700000EB09106421B0FBF1F000F00F000443EC
:103980002C8106B0BDE8F0874FF41651016000218C
:103990008180C18001810C2141810021818170479A
:1039A00010B502460020108A4FF2FF0318400B8822
:1039B0004C8823438C882343CC88234318431082AC
:1039C00010BD0021018041808180C180704721B1FC
:1039D000828942F40052828104E082894DF6FF73AD
:1039E0001A4082817047F0B5034600240026002566
:1039F000002040F66A17B94200D100BF1846C1F353
:103A0000421401F01F06012707FA06F5012C01D127
:103A10000C3004E0022C01D1103000E014301AB157
:103A200007682F43076002E00768AF430760F0BDF7
:103A30001AB1838A0B43838202E0838A8B43838299
:103A40007047028A4FF6F0731A400282028A0A43D4
:103A50000282704782894FF2FF731A408281828905
:103A60000A438281704721B1828942F00202828139
:103A700004E082894FF6FD731A4082817047028A02
:103A80004FF6DF731A400282028A0A4302827047AD
:103A900021B1028A42F48042028204E0028A4BF69B
:103AA000FF731A4002827047C1F308028280704798
:103AB00001468888C0F308007047818941F0010100
:103AC00081817047028BD2B20283028B42EA0122CB
:103AD00002837047028B02F47F420283028B0A4307
:103AE0000283704721B1828A42F02002828204E080
:103AF000828A4FF6DF731A408282704721B1828A30
:103B000042F01002828204E0828A4FF6EF731A407C
:103B10008282704721B1828A42F00802828204E0E8
:103B2000828A4FF6F7731A408282704721B18289E8
:103B300042F40042828103E08289C2F30E02828154
:103B4000704721B1828A42F40062828204E0828A54
:103B50004FF2FF731A4082827047828A4FF6FB73DE
:103B60001A408282828A0A438282704721B1828A05
:103B700042F00202828204E0828A4FF6FD731A400C
:103B80008282704702460020B1F5007F00D100BF5D
:103B900013880B400BB1012000E00020704701F4B6
:103BA0000072B2F5007F00D100BFCA4302807047A7
:103BB00070B50246002400230025002040F66A1656
:103BC000B14200D100BFC1F3421501F01F0301262D
:103BD00006FA03F3012D02D19689334006E0022D47
:103BE00002D1168A334001E0968A33400C12012636
:103BF00006FA04F41688344013B10CB1012000E039
:103C0000002070BD10B50022002340F66A14A142C6
:103C100000D100BF0A1201249440A3B2DC43048007
:103C200010BD000000380140004400400048004042
:103C3000004C00400050004010B501210846FEF73E
:103C400092FE01210220FEF78EFE10BD08B54FF452
:103C50004070FDF75BF814208DF8000002208DF80D
:103C6000010000208DF8020001208DF80300684655
:103C7000FDF751F825208DF8000001208DF8030094
:103C800004208DF8010000208DF802006846FDF741
:103C900042F827208DF8000001208DF80300052050
:103CA0008DF8010000208DF802006846FDF733F81A
:103CB00034208DF8000001208DF8030006208DF8D7
:103CC000010000208DF802006846FDF724F811205D
:103CD0008DF8000003208DF8010000208DF802000F
:103CE00001208DF803006846FDF715F810208DF8C7
:103CF000000000208DF801008DF8020001208DF8F1
:103D000003006846FDF707F81C208DF8000003202B
:103D10008DF8010000208DF8020001208DF80300CD
:103D20006846FCF7F8FF1D208DF8000008208DF88C
:103D3000010000208DF8020001208DF80300684684
:103D4000FCF7E9FF08BD10B5FEF792FC4FF4803098
:103D5000FEF7AEFCFEF7EBFC012828D11020FDF7A2
:103D600079FE0220FDF762FE0020FEF726FD4FF4EB
:103D70008060FEF72BFD0020FEF731FD4FF4E011CF
:103D80004FF48030FEF7FCFC0120FEF705FD00BF7C
:103D90003920FEF7B0FC0028FAD00220FEF7FFFC25
:103DA00000BFFEF705FD0828FBD1012010BD002053
:103DB000FCE710B5FFF7C7FF00F0DAF800F051F9A3
:103DC00000F01EF800F0A6F900F0FBF900F06AFA26
:103DD00000F080FA00F007FC00F098FA00F032FCE6
:103DE00000F076FD00F09EFDFFF730FF00BF0348B6
:103DF0000078FF28FBD1FFF71FFF10BD2C0000202B
:103E000000B589B001210420FEF7A0FD4FF48050D9
:103E1000ADF8200018208DF8230003208DF8220033
:103E200008A95148FEF7D6FA4FF40060ADF820001B
:103E300048208DF8230003208DF8220008A94A4865
:103E4000FEF7C8FA01214806FEF78DFD4748FCF74A
:103E5000CBFF05A8FDF7ECF800208DF81A008DF8CF
:103E60001B0001208DF81C0000208DF81D008DF82E
:103E70001E008DF81F008DF816008DF81700042025
:103E80008DF8180002208DF819000420ADF81400F8
:103E900005A93648FCF7C1FF00208DF80E008DF80B
:103EA0000F008DF810002020ADF804000020ADF8C0
:103EB0000600ADF80800ADF80A00ADF80C000120CE
:103EC0008DF8110001A8FDF732F8012202212748E0
:103ED000FDF72CFB09B000BD2DE9F04385B080460D
:103EE0000E46914600240027C8F30A0000900020E7
:103EF0008DF808008DF809008DF80A6000BF06E013
:103F000019F804100DF10B000155601CC4B2B44245
:103F1000F6DB69461548FDF7F9F8054609E0782013
:103F200000F03FF869461148FDF7F0F80546781CA7
:103F3000C7B2042D01D1042FF1DB29460B48FDF750
:103F40007DF908B1052F03DB002005B0BDE8F08343
:103F50000120FAE701B502E00098401E00900098A9
:103F60000028F9D108BD00000008014000640040AD
:103F700010B56FF00400FCF718FF2E4800682E49BA
:103F8000B0FBF1F02D4908700846007800EB4001C5
:103F9000C1EBC0104FF6FF7101EAC000284908804C
:103FA00010BD0146254A12784A434FF0E0235A617A
:103FB00000229A611A46126942F001021A6100BF9A
:103FC0004FF0E022106900F001021AB100F48032D3
:103FD000002AF5D04FF0E022126922F001024FF0E2
:103FE000E0231A6100229A6170470146144A128840
:103FF0004A434FF0E0235A6100229A611A4612693F
:1040000042F001021A6100BF4FF0E022106900F097
:1040100001021AB100F48032002AF5D04FF0E022FC
:10402000126922F001024FF0E0231A6100229A6126
:10403000704700000400002000127A002E000020CB
:1040400030000020C0F38001194A1160C0F3400124
:10405000184AC2F8B01100F00101154A121F116090
:10406000704708B501214020FEF770FC10208DF844
:10407000030003208DF802004FF40060ADF800004B
:1040800069460D48FEF7A6F94FF48050ADF80000E0
:1040900069460948FEF79EF94FF48060ADF80000CC
:1040A00069460548FEF796F90720FFF7CBFF08BDE4
:1040B000AC0123420000234200180140C0F340211C
:1040C0006A4A1160C0F30021694AC2F8A011C0F326
:1040D000C011664A083A1160C0F38011121F1160C6
:1040E000C0F34011121F1160C0F30011121F1160C4
:1040F000C0F3C001121F1160C0F38001121F1160D4
:10410000C0F34001121F116000F00101584AC2F8CB
:104110008011704708B501214020FEF717FC1020E0
:104120008DF8030003208DF802000120ADF8000097
:1041300069465048FEF74EF90220ADF80000694686
:104140004C48FEF747F90420ADF80000694649489D
:10415000FEF740F90820ADF8000069464548FEF733
:1041600039F91020ADF8000069464248FEF732F9EF
:104170002020ADF8000069463E48FEF72BF94020AC
:10418000ADF8000069463B48FEF724F98020ADF801
:10419000000069463748FEF71DF94FF48070ADF80E
:1041A000000069463348FEF715F94FF40070ADF88A
:1041B000000069462F48FEF70DF90020FFF77EFF4B
:1041C00008BD2D482D494860012008700020487026
:1041D0002B492A48C160022028490872002127483B
:1041E0004172284941610120244908740121234872
:1041F00041742549C16102202049087601211F48E8
:104200004176224941622249C162224941632249E1
:10421000C163224941642249C1647047134924396A
:104220000860704711492039086070470F491C39F0
:10423000086070470D491839086070470B491439F8
:1042400008607047094910390860704707490C3900
:104250000860704705490839086070470349091F1D
:10426000086070470149086070470000A4012342BC
:1042700000002342001801401D4200088000002079
:10428000254200082D420008354200083D42000842
:10429000454200084D420008554200085D420008B2
:1042A0006542000808B501212020FEF74FFB0121DF
:1042B0000820FEF74BFB48208DF8030003208DF803
:1042C00002004FF48060ADF8000069460948FEF72F
:1042D00081F808BD0848094908600948094908608B
:1042E000704709480068C0B270470748001D006861
:1042F000C0B2704700140140E342000834000020BF
:10430000EB420008380000202881224200B585B029
:10431000012144F20400FEF719FB18208DF8130068
:104320004FF40070ADF8100003208DF8120004A9BE
:10433000B948FEF74FF804208DF813000002ADF8DD
:10434000100004A9B448FEF745F84FF41650009049
:104350000020ADF80C000C20ADF80A000020ADF8EC
:104360000800ADF80600ADF804006946AB48FFF759
:10437000A2FA012240F22551A848FFF734FB01219F
:10438000A648FFF724FB01210820FEF7DFFA0121F0
:104390008804FEF7E8FA18208DF813004FF48060C7
:1043A000ADF8100003208DF8120004A99C48FEF718
:1043B00011F804208DF813004002ADF8100004A994
:1043C0009748FEF707F84FF4165000900020ADF81C
:1043D0000C000C20ADF80A000020ADF80800ADF884
:1043E0000600ADF8040069468E48FFF764FA012222
:1043F00040F225518B48FFF7F6FA01218948FFF773
:10440000E6FA01211020FEF7A1FA0121C804FEF707
:10441000AAFA18208DF813004FF48060ADF8100050
:1044200003208DF8120004A97F48FDF7D3FF042074
:104430008DF813004002ADF8100004A97A48FDF78A
:10444000C9FF4FF4165000900020ADF80C000C206E
:10445000ADF80A000020ADF80800ADF80600ADF890
:10446000040069467148FFF726FA012240F22551FF
:104470006E48FFF7B8FA01216C48FFF7A8FA05B0BB
:1044800000BD00B585B00420ADF8100018208DF8EF
:10449000130003208DF8120004A95F48FDF79AFF6E
:1044A0000820ADF8100004208DF8130004A95A4824
:1044B000FDF790FF4FF4E13000900020ADF80400CC
:1044C000ADF80600ADF80800ADF80C000C20ADF812
:1044D0000A0069465648FFF7EEF901215448FFF7F4
:1044E00076FA05B000BD00B58BB05248FDF774F9FF
:1044F0005148019000200790142003904C48001D63
:10450000009000200690102002908020059000204E
:10451000049008900A904FF400500990694645486D
:10452000FDF7FCF94FF04070FDF752FA012202212D
:104530004048FDF72AFA00213E48FDF71AFA012209
:1045400080213B48FFF774FA0BB000BD30B58BB04B
:1045500005460C4637481438FDF73EF93448001D2F
:10456000009000200690019507900394029080200F
:1045700005900020049008900A904FF44050099054
:1045800069462C481438FDF7C9F94FF44010FDF77F
:104590001FFA0122022127481438FDF7F6F90121FC
:1045A00024481438FDF7E5F9012240212048FFF79F
:1045B0003FFA0BB030BD10B500211E48FDF7D9F908
:1045C00014211C48FDF7EAF901211A48FDF7D1F939
:1045D00010BD184A803A9067126F8BB21A43154B80
:1045E000803B1A67704710B501210420FEF7AEF931
:1045F00001214804FEF7B7F901210846FEF799F9B1
:10460000FFF771FF0D48B0F900100D48FFF79EFF4E
:10461000FFF737FF10BD00000008014000380140DF
:10462000000C01400048004000100140004C0040D8
:1046300000440040800002408C01002076000020F1
:104640005C01002000B589B001210C20FEF77EF945
:1046500018208DF8230003208DF822004020ADF8AB
:10466000200008A99648FDF7B5FE8020ADF820008F
:1046700008A99348FDF7AEFE4FF48070ADF8200016
:1046800008A98F48FDF7A6FE4FF40070ADF8200092
:1046900008A98B48FDF79EFE01210420FEF763F96F
:1046A00040F2E730ADF808003220ADF804000020F9
:1046B000ADF80A00ADF806008DF80C0001A981489C
:1046C000FEF77CFA6020ADF810000120ADF8120072
:1046D0000020ADF81800ADF8160004A97948FEF7DF
:1046E000AAFA08217748FEF7F5FE0020ADF816007B
:1046F00004A97448FEF7E1FA08217248FEF7F3FEB8
:104700000020ADF8160004A96E48FEF723FB08212F
:104710006C48FEF7F5FE0020ADF8160004A96948C4
:10472000FEF763FB08216748FEF7F3FE01216548A9
:10473000FEF7A0FD09B000BD2DE9FF5F82469AF8A3
:104740000300642190FBF1F6304603F074FD8046CF
:1047500089469AF80010C1F1FF0003F06CFD06468F
:10476000594A5A4B03F092FD42464B46CDE90001AF
:1047700003F08CFD044603F031FD00F0FF0B9AF8C6
:104780000300642190FBF1F6304603F054FD8046AF
:1047900089469AF80110C1F1FF0003F04CFD06466E
:1047A000494A4A4B03F072FD42464B46CDE90001AF
:1047B00003F06CFD044603F011FDC0B203909AF8BB
:1047C0000300642190FBF1F6304603F034FDCDE99F
:1047D00000019AF80210C1F1FF0003F02CFD06461B
:1047E000394A3A4B03F052FD0446DDE9002303F059
:1047F0004DFD804603F0F2FCC0B2029031483430E7
:10480000A0F800B02F49383103980880091D02989C
:104810000880BDE8FF9F10B540F2523000F042F82A
:104820006420FFF7E2FB4FF43E7000F03BF8642099
:10483000FFF7DBFB40F29E2000F034F86420FFF726
:10484000D4FB00F038F84FF49670FFF7CEFB10BDA4
:1048500010B54FF4167000F025F86420FFF7C5FB83
:1048600000F029F86420FFF7C0FB4FF4167000F049
:1048700019F86420FFF7B9FB00F01DF86420FFF77A
:10488000B4FB4FF4167000F00DF86420FFF7ADFB99
:1048900000F011F86420FFF7A8FB4FF4C870FFF791
:1048A000A4FB10BD07492C3108804FF4C871054A9C
:1048B0004032118070470020024940310880704723
:1048C000000C014000080040736891ED7C3F0F40F0
:1048D0000EB501210846FEF746F840F2E730ADF884
:1048E00004004720ADF800000020ADF80600ADF848
:1048F00002008DF8080069464FF08040FEF75EF92F
:1049000001218807FEF77CFF012211469007FEF780
:10491000CCFC01218807FEF7ADFC00210120FEF749
:1049200022F80EBD0EB501210220FEF71CF840F260
:10493000E730ADF804004720ADF800000020ADF8E6
:104940000600ADF802008DF8080069460A48FEF737
:1049500035F901210848FEF753FF012211460648A8
:10496000FEF7A3FC01210448FEF784FC002102208D
:10497000FDF7F9FF0EBD0000000400400FB438B58C
:1049800005A80090FE48009A049900F0C5FF002099
:104990000090FB4800F0D2FF85B200240DE000BF7C
:1049A0004021F848FFF7EEF80028F9D0F448015DFF
:1049B000F448FFF779F8601C84B2AC42EFDB38BCF6
:1049C0005DF814FB0FB438B505A80090EE48009AC6
:1049D000049900F0A1FF00200090EB4800F0AEFF2A
:1049E00085B200240DE000BF4021E848FFF7CAF877
:1049F0000028F9D0E448015DE448FFF755F8601C51
:104A000084B2AC42EFDB38BC5DF814FB0FB438B5B0
:104A100005A80090DE48009A049900F07DFF002070
:104A20000090DB4800F08AFF85B200240DE000BF53
:104A30004021D848FFF7A6F80028F9D0D448015DF6
:104A4000D448FFF731F8601C84B2AC42EFDB38BCCD
:104A50005DF814FB3CB5024600BF002300930193B0
:104A6000002107E0CB1CD35C303BDBB20DF80130FA
:104A70004B1CD9B20729F5DB9DF80030C64C6343C7
:104A80009DF8014040F271256C4303EB04139DF83F
:104A9000024004EB4405C5EBC41403EBC4039DF8CA
:104AA000044004EBC40505EB041403EB84039DF8F8
:104AB000054004EB840403EB44039DF806401819F9
:104AC0003CBD1FB5B5A103C9CDE90201B5A103C91C
:104AD000CDE900010020B5490880B5490880B549F5
:104AE000088002A8FFF74AFF02A8FFF76BFF02A8A1
:104AF000FFF78CFF14E0B0480078012802D002A82C
:104B0000FFF73CFFAD480078012802D002A8FFF76C
:104B100059FFAB480078012802D002A8FFF776FFC2
:104B2000A5480078A54909780840A54909780840B2
:104B30000128E0D100209D4908809D4908809D49B9
:104B400008806846FFF71AFF6846FFF73BFF684694
:104B5000FFF75CFF14E098480078022802D068460E
:104B6000FFF70CFF95480078022802D06846FFF74F
:104B700029FF93480078022802D06846FFF746FFD5
:104B80008D4800788D49097808408D49097808409A
:104B90000228E0D1002085490880854908808549A0
:104BA00008801FBD08B587A00068009000207F49DD
:104BB00008807F4908807F4908806846FFF7DEFE4D
:104BC0006846FFF7FFFE6846FFF720FF11E07748D1
:104BD000008810B96846FFF7D1FE7548008810B903
:104BE0006846FFF7EFFE7348008810B96846FFF784
:104BF0000DFF6E4800886E49098808406D49098894
:104C0000084000F400400028E1D0002067490880F7
:104C100067490880674908806B48FFF71BFF00F26F
:104C2000F9106A4908606A48FFF714FF00F2631040
:104C3000664948606748FFF70DFF00F29B10634923
:104C4000886008BD2DE9F04F87B04FF0000A0020C2
:104C50000690FFF7A7FF6048604902F065FFCDE9C5
:104C600000015A4949684900584A926801FB02F01C
:104C700003F0E1FA8046DDE9002303F007FBCDE90C
:104C80000201524949684943504A9368926803FBBC
:104C9000021003F0D0FA0646DDE9022303F0E6FC39
:104CA000CDE9040102F0DEFF044603F02DF8824650
:104CB0004649486803F014FF514605904FF0804084
:104CC00003F026FF0490059903F022FF81463F4937
:104CD000896801FB01F003F003FF5146059050463F
:104CE00003F016FF39490390496801FB01F003F016
:104CF000F7FE0290039903F0CFFD0490059903F0AD
:104D0000D3FF8346494603F029FE804603F098FD11
:104D1000064602F0CBFD044602F0F6FF069030494D
:104D2000069803F0F5FE834603F08AFD80462D4A7F
:104D30002D4B03F0CBF8064600222C4B03F016F85F
:104D4000044603F01BFA00B229498880069803F054
:104D500077FDCDE9020102F035FF804689461B4907
:104D60004968484203F067FA42464B46CDE90401E0
:104D700003F08CFA064600221E4B02F0F7FF3BE0E0
:104D8000D000002000380140E8000020004800402A
:104D900000010020004C0040A086010080060501B3
:104DA00074000000FA04090AEF0000003C00002033
:104DB0003E00002040000020420000204300002070
:104DC00044000020800602781401002050010020D9
:104DD000280100203C010020C4062C3552C1E03FD0
:104DE000000034434AD8124DFB21094000003E40E8
:104DF0004600002000407F40044603F0BFF900B2A7
:104E000014490880069803F01BFD0646124A134B0E
:104E100003F03AFB044602F087FE804689461049BB
:104E2000086803F008FA42464B46CDE9000103F05A
:104E30002DFA00220B4BCDE9020102F097FFCDE9DC
:104E4000040103F09BF900B20249488007B0BDE8B5
:104E5000F08F000046000020E8D47C3252C1F03FC1
:104E60005001002000F8AB4018B90021FB4A116046
:104E700004E0012802D10021F94A11607047F74986
:104E800009680144F54A1160F54909680144F44A8A
:104E90001160F24909685A2903D2114609683C2970
:104EA00003D30121EF4A117002E00221ED4A117093
:104EB000704710B5EC480078012804D1FFF7C2FE16
:104EC0000220E949087010BD2DE9F04105460E4663
:104ED0001746002400BF16E0E44810F83400A8424A
:104EE00001D0032D0DD1E14800EBC4004078B04261
:104EF00001D0032E05D1DD4800EBC40041683846DF
:104F00008847601CC4B20A2CE6DBBDE8F08110B50E
:104F1000D74B9A7859781878FFF7D6FF10BD70B53F
:104F200005460E464FF0E020046904F00100B8B1D8
:104F300041F6583006FB00F42DB900E0641E002C49
:104F4000FCD1012070BD00E0641E28688047012864
:104F500001D1002CF8D10CB90020F3E70120F1E7D2
:104F6000C448008870434FF0E02148610020886108
:104F70000846006940F001000861B5B900BF4FF074
:104F8000E020046904F0010018B104F48030002826
:104F9000F5D04FF0E020006920F001004FF0E02153
:104FA0000861002088610120CCE700BF4FF0E020BD
:104FB000046928688047012806D104F0010018B16F
:104FC00004F480300028F1D004F4803058B94FF058
:104FD000E020006920F001004FF0E021086100208E
:104FE00088610120AEE74FF0E020006920F0010069
:104FF0004FF0E02108610020886100BFA2E79E49D0
:10500000087000BF9D4909788142FBD170479A49D9
:105010004870704710B5012200211046FFF754FF79
:10502000C8210020FFF77BFF012211461046FFF741
:105030004BFF40F2DC519248FFF771FF002211460E
:105040000120FFF741FF4FF448710020FFF767FF91
:10505000002201210846FFF737FF10BD10B50122DD
:1050600000210220FFF730FFC8210020FFF757FF83
:10507000012211460220FFF727FF40F2DC51814850
:10508000FFF74DFF002211460220FFF71DFF4FF4EE
:1050900048710020FFF743FF002201210220FFF7A3
:1050A00013FF10BD10B5012200211046FFF70CFFC1
:1050B000012200210220FFF707FFC8210020FFF78F
:1050C0002EFF012211461046FFF7FEFE0122114677
:1050D0000220FFF7F9FE40F2DC516A48FFF71FFF9C
:1050E00040F2DC516648FFF71AFF0022114601200A
:1050F000FFF7EAFE002211460220FFF7E5FE4FF41B
:1051000048710020FFF70BFF002201210846FFF73E
:10511000DBFE002201210220FFF7D6FE10BD10B5F4
:10512000012211460220FFF7CFFE40F2DC51554824
:10513000FFF7F5FE4FF47A710020FFF7F0FE012231
:1051400000210220FFF7C0FEC8210020FFF7E7FE84
:10515000002201210220FFF7B7FEC8210020FFF73F
:10516000DEFE002211460220FFF7AEFE4648007C1C
:10517000401E4549087410BD10B501221146104665
:10518000FFF7A2FE40F2DC513D48FFF7C8FE4FF4A6
:105190007A710020FFF7C3FE012200211046FFF7BD
:1051A00093FEC8210020FFF7BAFE00220121084625
:1051B000FFF78AFEC8210020FFF7B1FE002211464A
:1051C0000120FFF781FE3048007C401E2E49087404
:1051D00010BD10B5012211461046FFF775FE0122E1
:1051E00011460220FFF770FE40F2DC512448FFF721
:1051F00096FE40F2DC512348FFF791FE4FF47A719E
:105200000020FFF78CFE012200211046FFF75CFE14
:10521000012200210220FFF757FEC8210020FFF7DE
:105220007EFE002201210846FFF74EFE00220121EA
:105230000220FFF749FEC8210020FFF770FE002280
:1052400011460120FFF740FE002211460220FFF721
:105250003BFE00200C49087410BD000058000020DF
:105260005C0000205300002054000020800000203B
:105270004C000020300000204F0000205100002092
:1052800034000020380000206000002010B502200B
:10529000FFF7B5FE012211460220FFF715FE40F28E
:1052A000DC51A448FFF73BFE4FF47A710020FFF772
:1052B00036FE012200210220FFF706FEC821002051
:1052C000FFF72DFE002201210220FFF7FDFDC8217E
:1052D0000020FFF724FE002211460220FFF7F4FD14
:1052E0009548007C401E944908740320FFF787FE10
:1052F00010BD10B50320FFF782FE012211461046B3
:10530000FFF7E2FD40F2DC518C48FFF708FE4FF456
:105310007A710020FFF703FE012200211046FFF7FB
:10532000D3FDC8210020FFF7FAFD00220121084625
:10533000FFF7CAFDC8210020FFF7F1FD002211464A
:105340000120FFF7C1FD7C48007C401E7A490874AB
:1053500010BD10B50420FFF752FE01221146104681
:10536000FFF7B2FD012211460220FFF7ADFD40F22A
:10537000DC517248FFF7D3FD40F2DC516D48FFF776
:10538000CEFD4FF47A710020FFF7C9FD0122002104
:105390001046FFF799FD012200210220FFF794FD3E
:1053A000C8210020FFF7BBFD002201210846FFF7BE
:1053B0008BFD002201210220FFF786FDC82100207D
:1053C000FFF7ADFD002211460120FFF77DFD002211
:1053D00011460220FFF778FD00205749087410BDE0
:1053E00010B5012200211046FFF76EFDC8210020F4
:1053F000FFF795FD012211461046FFF765FD10BD30
:1054000010B5012200210220FFF75EFDC821002017
:10541000FFF785FD012211460220FFF755FD10BD63
:1054200010B5012200211046FFF74EFD0122002198
:105430000220FFF749FDC8210020FFF770FD01227F
:1054400011461046FFF740FD012211460220FFF7EA
:105450003BFD10BD10B5002211460120FFF734FDC1
:10546000C8210020FFF75BFD002201210846FFF75D
:105470002BFD10BD10B5002211460220FFF724FDC0
:10548000C8210020FFF74BFD002201210220FFF779
:105490001BFD10BD10B5002211460120FFF714FDC1
:1054A000002211460220FFF70FFDC8210020FFF760
:1054B00036FD002201210846FFF706FD00220121EA
:1054C0000220FFF701FD10BD10B50022114601209A
:1054D000FFF7FAFC002211460220FFF7F5FC00223C
:1054E00001210846FFF7F0FC002201210220FFF70E
:1054F000EBFC0120FFF783FD10BD10B50120FFF785
:105500007EFDFFF7CFFD10BD00B50220FFF777FD50
:1055100000BD10B50120FFF772FDFFF7C3FD10BD00
:1055200000B50420FFF76BFD00BD70477047704762
:105530007047000038000020600000203400002088
:105540006F48007805282CD007DC80B101281CD0DA
:10555000022814D003282AD10DE0062819D00728E4
:105560001BD0FF2823D167486549486020E0664882
:10557000634948601CE065486149486018E00220C2
:105580005F4908746248486012E062485C494860BC
:105590000EE061485A4948600AE06048584948604E
:1055A00006E00220564908745D48486000E000BFEC
:1055B00000BF704710B55B488078FF2805D0514880
:1055C0004F49C860FFF7A3FC8DE04D48007A0128E1
:1055D00006D0022824D0032842D0052870D15FE0ED
:1055E0004748407A012803D14F484549C86016E032
:1055F0004348407A022803D14C484149C8600EE034
:105600003F48407A032803D149483D49C86006E035
:105610003B48407A042802D146483949C86061E0D5
:105620003748407A012803D143483549C86016E01D
:105630003348407A022803D140483149C8600EE01F
:105640002F48407A032803D13D482D49C86006E021
:105650002B48407A042802D13A482949C86041E0E1
:105660002748407A012803D137482549C86016E009
:105670002348407A022803D134482149C8600EE00B
:105680001F48407A032803D131481D49C86006E00D
:105690001B48407A042802D12E481949C86021E0ED
:1056A0001748407A072803D12B481549C86017E0EE
:1056B0001348407A082804D128481149C8600FE0EF
:1056C0000FE00F48407A092803D125480C49C860EB
:1056D00006E00B48407A102802D122480849C860E9
:1056E00000E000BF00BF10BD06480549486001202A
:1056F0008874704703480249C86001208874704765
:10570000600000202B550008FB5400082D550008B0
:1057100009550008135500082F5500083155000899
:10572000215500084C000020155000087951000850
:10573000E1530008555400085D5000081F5100084F
:105740000154000875540008A5500008D351000802
:1057500021540008955400088D520008F3520008A7
:1057600053530008C954000838B5044620788DF812
:1057700000006A4601210820FEF7AEFB38BDC17A61
:10578000024A1170017B51707047000051000020E7
:1057900030B500220023574C2488182C03D018243D
:1057A000544D2C8030BD002122E0445C2344445CF5
:1057B000AA2C00D10A46445CBB2C02D04C1E944259
:1057C00002D114B24B4D2C8012B91824494D2C80B3
:1057D000484CB4F90040002C03DA1824454D2C80C5
:1057E00005E0444C248814B91824424D2C80491CEF
:1057F000414C2468241F8C42D7DC44699C4233D13D
:10580000847C3E4DEC742C46E47C012C10D1447A0F
:105810003B4D2C70847A6C70C47AAC70047B394D2B
:105820006C70447B2C70C479344D2C72047A6C7289
:10583000C47B324D2C70047C6C74847B324D2C7094
:10584000C4792CB9047A1CB9847B0CB9047C14B1DA
:1058500001242E4D2C70447C012C02D10024274DB4
:10586000AC741824234D2C80224CB4F90040224DF6
:105870002C6000BF96E770B50025AA202449087067
:10588000BB2048700020887022480088888021480A
:105890004088C8801F48808808811B4800780228FB
:1058A00005D10120887200201749087002E000200D
:1058B00017498872154800781549487313480078CD
:1058C00010B10020114908700C48807C1049887381
:1058D0000A48007CC873002404E00D48005D0544BC
:1058E000601CC4B2102CF8D309480561FEF763FEB2
:1058F00070BD0000760000207C00002060000020C9
:105900004C0000204F0000205400002078000020B0
:105910008C010020460000201CB50C46064B7B4441
:1059200069460090204600F0EEF8044600206946E3
:1059300000F0FCF820461CBD0B02000010B5431C13
:1059400002E010F8011B71B18107FAD14FF001326A
:1059500002C88C1A8C4314EAC211F9D0C01A0A0684
:1059600003D0C01E10BDC01A10BD0A0401D0801E95
:1059700010BD0902FCD0401E10BD70477047704733
:1059800010B500F0BBFA006810BD10B5044600F079
:10599000B5FA046010BD70B5044685690068C1069B
:1059A00001D5302600E02026C00707D070BDD4E91D
:1059B000012130469047206A401C20626D1EF6D5BA
:1059C00070BD70B5044685690078C00707D170BD09
:1059D000D4E9012120209047206A401C20626D1EDE
:1059E000F6D570BD09684A0501D540B27047C905B2
:1059F000FCD500B2704709684A0501D5C0B27047AE
:105A0000C905FCD580B2704770B50C460546012A21
:105A100005D02878800600D5EA69002302E001233A
:105A200005E05B1C934202D2E05C0028F9D1A86932
:105A3000E618C01AA861286A184428622846FFF7A9
:105A4000AAFF04E0D5E9012114F8010B9047B44204
:105A5000F8D32846FFF7B5FF70BD00002DE9F041EF
:105A60000646002410687529314616A510D0FFF7A8
:105A7000B9FF002802DA404213A507E031688A071F
:105A800001D512A502E0490704D511A5012401E0C2
:105A9000FFF7B1FF00210A2206F1240709E0B0FB5D
:105AA000F2FCB0FBF2F302FB1C00303078541846D5
:105AB000491C0028F3D123462A463046BDE8F04170
:105AC00000F065BA000000002D0000002B0000006F
:105AD0002000000011680268006A530501D50870B3
